{"abi":[{"type":"constructor","inputs":[{"name":"_Registry","type":"address","internalType":"address"}],"stateMutability":"nonpayable"},{"type":"function","name":"approve","inputs":[{"name":"to","type":"address","internalType":"address"},{"name":"tokenId","type":"uint256","internalType":"uint256"}],"outputs":[],"stateMutability":"nonpayable"},{"type":"function","name":"balanceOf","inputs":[{"name":"owner","type":"address","internalType":"address"}],"outputs":[{"name":"","type":"uint256","internalType":"uint256"}],"stateMutability":"view"},{"type":"function","name":"donate","inputs":[{"name":"charity","type":"address","internalType":"address"}],"outputs":[],"stateMutability":"payable"},{"type":"function","name":"getApproved","inputs":[{"name":"tokenId","type":"uint256","internalType":"uint256"}],"outputs":[{"name":"","type":"address","internalType":"address"}],"stateMutability":"view"},{"type":"function","name":"isApprovedForAll","inputs":[{"name":"owner","type":"address","internalType":"address"},{"name":"operator","type":"address","internalType":"address"}],"outputs":[{"name":"","type":"bool","internalType":"bool"}],"stateMutability":"view"},{"type":"function","name":"name","inputs":[],"outputs":[{"name":"","type":"string","internalType":"string"}],"stateMutability":"view"},{"type":"function","name":"owner","inputs":[],"outputs":[{"name":"","type":"address","internalType":"address"}],"stateMutability":"view"},{"type":"function","name":"ownerOf","inputs":[{"name":"tokenId","type":"uint256","internalType":"uint256"}],"outputs":[{"name":"","type":"address","internalType":"address"}],"stateMutability":"view"},{"type":"function","name":"registry","inputs":[],"outputs":[{"name":"","type":"address","internalType":"contract CharityRegistry"}],"stateMutability":"view"},{"type":"function","name":"safeTransferFrom","inputs":[{"name":"from","type":"address","internalType":"address"},{"name":"to","type":"address","internalType":"address"},{"name":"tokenId","type":"uint256","internalType":"uint256"}],"outputs":[],"stateMutability":"nonpayable"},{"type":"function","name":"safeTransferFrom","inputs":[{"name":"from","type":"address","internalType":"address"},{"name":"to","type":"address","internalType":"address"},{"name":"tokenId","type":"uint256","internalType":"uint256"},{"name":"data","type":"bytes","internalType":"bytes"}],"outputs":[],"stateMutability":"nonpayable"},{"type":"function","name":"setApprovalForAll","inputs":[{"name":"operator","type":"address","internalType":"address"},{"name":"approved","type":"bool","internalType":"bool"}],"outputs":[],"stateMutability":"nonpayable"},{"type":"function","name":"supportsInterface","inputs":[{"name":"interfaceId","type":"bytes4","internalType":"bytes4"}],"outputs":[{"name":"","type":"bool","internalType":"bool"}],"stateMutability":"view"},{"type":"function","name":"symbol","inputs":[],"outputs":[{"name":"","type":"string","internalType":"string"}],"stateMutability":"view"},{"type":"function","name":"tokenCounter","inputs":[],"outputs":[{"name":"","type":"uint256","internalType":"uint256"}],"stateMutability":"view"},{"type":"function","name":"tokenURI","inputs":[{"name":"tokenId","type":"uint256","internalType":"uint256"}],"outputs":[{"name":"","type":"string","internalType":"string"}],"stateMutability":"view"},{"type":"function","name":"transferFrom","inputs":[{"name":"from","type":"address","internalType":"address"},{"name":"to","type":"address","internalType":"address"},{"name":"tokenId","type":"uint256","internalType":"uint256"}],"outputs":[],"stateMutability":"nonpayable"},{"type":"function","name":"updateRegistry","inputs":[{"name":"_registry","type":"address","internalType":"address"}],"outputs":[],"stateMutability":"nonpayable"},{"type":"event","name":"Approval","inputs":[{"name":"owner","type":"address","indexed":true,"internalType":"address"},{"name":"approved","type":"address","indexed":true,"internalType":"address"},{"name":"tokenId","type":"uint256","indexed":true,"internalType":"uint256"}],"anonymous":false},{"type":"event","name":"ApprovalForAll","inputs":[{"name":"owner","type":"address","indexed":true,"internalType":"address"},{"name":"operator","type":"address","indexed":true,"internalType":"address"},{"name":"approved","type":"bool","indexed":false,"internalType":"bool"}],"anonymous":false},{"type":"event","name":"BatchMetadataUpdate","inputs":[{"name":"_fromTokenId","type":"uint256","indexed":false,"internalType":"uint256"},{"name":"_toTokenId","type":"uint256","indexed":false,"internalType":"uint256"}],"anonymous":false},{"type":"event","name":"MetadataUpdate","inputs":[{"name":"_tokenId","type":"uint256","indexed":false,"internalType":"uint256"}],"anonymous":false},{"type":"event","name":"Transfer","inputs":[{"name":"from","type":"address","indexed":true,"internalType":"address"},{"name":"to","type":"address","indexed":true,"internalType":"address"},{"name":"tokenId","type":"uint256","indexed":true,"internalType":"uint256"}],"anonymous":false},{"type":"error","name":"ERC721IncorrectOwner","inputs":[{"name":"sender","type":"address","internalType":"address"},{"name":"tokenId","type":"uint256","internalType":"uint256"},{"name":"owner","type":"address","internalType":"address"}]},{"type":"error","name":"ERC721InsufficientApproval","inputs":[{"name":"operator","type":"address","internalType":"address"},{"name":"tokenId","type":"uint256","internalType":"uint256"}]},{"type":"error","name":"ERC721InvalidApprover","inputs":[{"name":"approver","type":"address","internalType":"address"}]},{"type":"error","name":"ERC721InvalidOperator","inputs":[{"name":"operator","type":"address","internalType":"address"}]},{"type":"error","name":"ERC721InvalidOwner","inputs":[{"name":"owner","type":"address","internalType":"address"}]},{"type":"error","name":"ERC721InvalidReceiver","inputs":[{"name":"receiver","type":"address","internalType":"address"}]},{"type":"error","name":"ERC721InvalidSender","inputs":[{"name":"sender","type":"address","internalType":"address"}]},{"type":"error","name":"ERC721NonexistentToken","inputs":[{"name":"tokenId","type":"uint256","internalType":"uint256"}]},{"type":"error","name":"StringsInsufficientHexLength","inputs":[{"name":"value","type":"uint256","internalType":"uint256"},{"name":"length","type":"uint256","internalType":"uint256"}]}],"bytecode":{"object":"0x608060405234801561000f575f5ffd5b50604051611bbe380380611bbe83398101604081905261002e916100bc565b6040518060400160405280600f81526020016e111bdb985d1a5bdb949958d95a5c1d608a1b8152506040518060400160405280600381526020016244524360e81b815250815f90816100809190610181565b50600161008d8282610181565b505060078054336001600160a01b0319918216811790925560098054909116909117905550505f60085561023b565b5f602082840312156100cc575f5ffd5b81516001600160a01b03811681146100e2575f5ffd5b9392505050565b634e487b7160e01b5f52604160045260245ffd5b600181811c9082168061011157607f821691505b60208210810361012f57634e487b7160e01b5f52602260045260245ffd5b50919050565b601f82111561017c57805f5260205f20601f840160051c8101602085101561015a5750805b601f840160051c820191505b81811015610179575f8155600101610166565b50505b505050565b81516001600160401b0381111561019a5761019a6100e9565b6101ae816101a884546100fd565b84610135565b6020601f8211600181146101e0575f83156101c95750848201515b5f19600385901b1c1916600184901b178455610179565b5f84815260208120601f198516915b8281101561020f57878501518255602094850194600190920191016101ef565b508482101561022c57868401515f19600387901b60f8161c191681555b50505050600190811b01905550565b611976806102485f395ff3fe608060405260043610610104575f3560e01c806370a0823111610092578063a22cb46511610062578063a22cb465146102e0578063b88d4fde146102ff578063c87b56dd1461031e578063d082e3811461033d578063e985e9c514610352575f5ffd5b806370a08231146102615780637b1039991461028e5780638da5cb5b146102ad57806395d89b41146102cc575f5ffd5b8063095ea7b3116100d8578063095ea7b3146101a95780631a5da6c8146101c857806323b872dd1461020457806342842e0e146102235780636352211e14610242575f5ffd5b8062362a951461010857806301ffc9a71461011d57806306fdde0314610151578063081812fc14610172575b5f5ffd5b61011b61011636600461139b565b610371565b005b348015610128575f5ffd5b5061013c6101373660046113cc565b6104fd565b60405190151581526020015b60405180910390f35b34801561015c575f5ffd5b50610165610527565b6040516101489190611415565b34801561017d575f5ffd5b5061019161018c366004611427565b6105b6565b6040516001600160a01b039091168152602001610148565b3480156101b4575f5ffd5b5061011b6101c336600461143e565b6105dd565b3480156101d3575f5ffd5b5061011b6101e236600461139b565b600780546001600160a01b0319166001600160a01b0392909216919091179055565b34801561020f575f5ffd5b5061011b61021e366004611466565b6105ec565b34801561022e575f5ffd5b5061011b61023d366004611466565b610675565b34801561024d575f5ffd5b5061019161025c366004611427565b610694565b34801561026c575f5ffd5b5061028061027b36600461139b565b61069e565b604051908152602001610148565b348015610299575f5ffd5b50600754610191906001600160a01b031681565b3480156102b8575f5ffd5b50600954610191906001600160a01b031681565b3480156102d7575f5ffd5b506101656106e3565b3480156102eb575f5ffd5b5061011b6102fa3660046114ad565b6106f2565b34801561030a575f5ffd5b5061011b6103193660046114f6565b6106fd565b348015610329575f5ffd5b50610165610338366004611427565b610715565b348015610348575f5ffd5b5061028060085481565b34801561035d575f5ffd5b5061013c61036c3660046115d3565b610820565b60075460405163b9209e3360e01b81526001600160a01b0383811660048301529091169063b9209e3390602401602060405180830381865afa1580156103b9573d5f5f3e3d5ffd5b505050506040513d601f19601f820116820180604052508101906103dd9190611604565b6104255760405162461bcd60e51b815260206004820152601460248201527310da185c9a5d1e481b9bdd081d995c9a599a595960621b60448201526064015b60405180910390fd5b5f816001600160a01b0316346040515f6040518083038185875af1925050503d805f811461046e576040519150601f19603f3d011682016040523d82523d5f602084013e610473565b606091505b50509050806104bb5760405162461bcd60e51b81526020600482015260146024820152732330b4b632b2103a379039b2b7321022ba3432b960611b604482015260640161041c565b6104c73360085461084d565b5f6104d33342346108ae565b90506104e160085482610932565b600160085f8282546104f39190611633565b9091555050505050565b5f6001600160e01b03198216632483248360e11b1480610521575061052182610981565b92915050565b60605f805461053590611646565b80601f016020809104026020016040519081016040528092919081815260200182805461056190611646565b80156105ac5780601f10610583576101008083540402835291602001916105ac565b820191905f5260205f20905b81548152906001019060200180831161058f57829003601f168201915b5050505050905090565b5f6105c0826109d0565b505f828152600460205260409020546001600160a01b0316610521565b6105e8828233610a08565b5050565b6001600160a01b03821661061557604051633250574960e11b81525f600482015260240161041c565b5f610621838333610a15565b9050836001600160a01b0316816001600160a01b03161461066f576040516364283d7b60e01b81526001600160a01b038086166004830152602482018490528216604482015260640161041c565b50505050565b61068f83838360405180602001604052805f8152506106fd565b505050565b5f610521826109d0565b5f6001600160a01b0382166106c8576040516322718ad960e21b81525f600482015260240161041c565b506001600160a01b03165f9081526003602052604090205490565b60606001805461053590611646565b6105e8338383610b07565b6107088484846105ec565b61066f3385858585610ba5565b6060610720826109d0565b505f828152600660205260408120805461073990611646565b80601f016020809104026020016040519081016040528092919081815260200182805461076590611646565b80156107b05780601f10610787576101008083540402835291602001916107b0565b820191905f5260205f20905b81548152906001019060200180831161079357829003601f168201915b505050505090505f6107cc60408051602081019091525f815290565b905080515f036107dd575092915050565b81511561080f5780826040516020016107f7929190611695565b60405160208183030381529060405292505050919050565b61081884610ccd565b949350505050565b6001600160a01b039182165f90815260056020908152604080832093909416825291909152205460ff1690565b6001600160a01b03821661087657604051633250574960e11b81525f600482015260240161041c565b5f61088283835f610a15565b90506001600160a01b0381161561068f576040516339e3563760e11b81525f600482015260240161041c565b60605f6108c5856001600160a01b03166014610d3d565b6108ce85610eaf565b6108d785610eaf565b6040516020016108e9939291906116a9565b60405160208183030381529060405290505f61090482610f3f565b905080604051602001610917919061171a565b604051602081830303815290604052925050505b9392505050565b5f828152600660205260409020610949828261178f565b506040518281527ff8e1a15aba9398e019f0b49df1a4fde98ee17ae345cb5f6b5e2c27f5033e8ce79060200160405180910390a15050565b5f6001600160e01b031982166380ac58cd60e01b14806109b157506001600160e01b03198216635b5e139f60e01b145b8061052157506301ffc9a760e01b6001600160e01b0319831614610521565b5f818152600260205260408120546001600160a01b03168061052157604051637e27328960e01b81526004810184905260240161041c565b61068f8383836001610f65565b5f828152600260205260408120546001600160a01b0390811690831615610a4157610a41818486611069565b6001600160a01b03811615610a7b57610a5c5f855f5f610f65565b6001600160a01b0381165f90815260036020526040902080545f190190555b6001600160a01b03851615610aa9576001600160a01b0385165f908152600360205260409020805460010190555b5f8481526002602052604080822080546001600160a01b0319166001600160a01b0389811691821790925591518793918516917fddf252ad1be2c89b69c2b068fc378daa952ba7f163c4a11628f55a4df523b3ef91a4949350505050565b6001600160a01b038216610b3957604051630b61174360e31b81526001600160a01b038316600482015260240161041c565b6001600160a01b038381165f81815260056020908152604080832094871680845294825291829020805460ff191686151590811790915591519182527f17307eab39ab6107e8899845ad3d59bd9653f200f220920489ca2b5937696c31910160405180910390a3505050565b6001600160a01b0383163b15610cc657604051630a85bd0160e11b81526001600160a01b0384169063150b7a0290610be790889088908790879060040161184a565b6020604051808303815f875af1925050508015610c21575060408051601f3d908101601f19168201909252610c1e91810190611886565b60015b610c88573d808015610c4e576040519150601f19603f3d011682016040523d82523d5f602084013e610c53565b606091505b5080515f03610c8057604051633250574960e11b81526001600160a01b038516600482015260240161041c565b805181602001fd5b6001600160e01b03198116630a85bd0160e11b14610cc457604051633250574960e11b81526001600160a01b038516600482015260240161041c565b505b5050505050565b6060610cd8826109d0565b505f610cee60408051602081019091525f815290565b90505f815111610d0c5760405180602001604052805f81525061092b565b80610d1684610eaf565b604051602001610d27929190611695565b6040516020818303038152906040529392505050565b6060825f610d4c8460026118a1565b610d57906002611633565b67ffffffffffffffff811115610d6f57610d6f6114e2565b6040519080825280601f01601f191660200182016040528015610d99576020820181803683370190505b509050600360fc1b815f81518110610db357610db36118b8565b60200101906001600160f81b03191690815f1a905350600f60fb1b81600181518110610de157610de16118b8565b60200101906001600160f81b03191690815f1a9053505f610e038560026118a1565b610e0e906001611633565b90505b6001811115610e85576f181899199a1a9b1b9c1cb0b131b232b360811b83600f1660108110610e4257610e426118b8565b1a60f81b828281518110610e5857610e586118b8565b60200101906001600160f81b03191690815f1a90535060049290921c91610e7e816118cc565b9050610e11565b5081156108185760405163e22e27eb60e01b8152600481018690526024810185905260440161041c565b60605f610ebb836110cd565b60010190505f8167ffffffffffffffff811115610eda57610eda6114e2565b6040519080825280601f01601f191660200182016040528015610f04576020820181803683370190505b5090508181016020015b5f19016f181899199a1a9b1b9c1cb0b131b232b360811b600a86061a8153600a8504945084610f0e57509392505050565b6060610521826040518060600160405280604081526020016119016040913960016111a4565b8080610f7957506001600160a01b03821615155b1561103a575f610f88846109d0565b90506001600160a01b03831615801590610fb45750826001600160a01b0316816001600160a01b031614155b8015610fc75750610fc58184610820565b155b15610ff05760405163a9fbf51f60e01b81526001600160a01b038416600482015260240161041c565b81156110385783856001600160a01b0316826001600160a01b03167f8c5be1e5ebec7d5bd14f71427d1e84f3dd0314c0f7b2291e5b200ac8c7c3b92560405160405180910390a45b505b50505f90815260046020526040902080546001600160a01b0319166001600160a01b0392909216919091179055565b61107483838361131f565b61068f576001600160a01b0383166110a257604051637e27328960e01b81526004810182905260240161041c565b60405163177e802f60e01b81526001600160a01b03831660048201526024810182905260440161041c565b5f8072184f03e93ff9f4daa797ed6e38ed64bf6a1f0160401b831061110b5772184f03e93ff9f4daa797ed6e38ed64bf6a1f0160401b830492506040015b6d04ee2d6d415b85acef81000000008310611137576d04ee2d6d415b85acef8100000000830492506020015b662386f26fc10000831061115557662386f26fc10000830492506010015b6305f5e100831061116d576305f5e100830492506008015b612710831061118157612710830492506004015b60648310611193576064830492506002015b600a83106105215760010192915050565b606083515f036111c2575060408051602081019091525f815261092b565b5f826111f2576003855160046111d891906118a1565b6111e3906002611633565b6111ed91906118e1565b611217565b6003855160026112029190611633565b61120c91906118e1565b6112179060046118a1565b90505f8167ffffffffffffffff811115611233576112336114e2565b6040519080825280601f01601f19166020018201604052801561125d576020820181803683370190505b509050600185016020820187885189016020810180515f82525b828410156112d2576003840193508351603f8160121c168701518653600186019550603f81600c1c168701518653600186019550603f8160061c168701518653600186019550603f8116870151865350600185019450611277565b905250508515611313576003885106600181146112f6576002811461130957611311565b603d6001830353603d6002830353611311565b603d60018303535b505b50909695505050505050565b5f6001600160a01b038316158015906108185750826001600160a01b0316846001600160a01b0316148061135857506113588484610820565b806108185750505f908152600460205260409020546001600160a01b03908116911614919050565b80356001600160a01b0381168114611396575f5ffd5b919050565b5f602082840312156113ab575f5ffd5b61092b82611380565b6001600160e01b0319811681146113c9575f5ffd5b50565b5f602082840312156113dc575f5ffd5b813561092b816113b4565b5f81518084528060208401602086015e5f602082860101526020601f19601f83011685010191505092915050565b602081525f61092b60208301846113e7565b5f60208284031215611437575f5ffd5b5035919050565b5f5f6040838503121561144f575f5ffd5b61145883611380565b946020939093013593505050565b5f5f5f60608486031215611478575f5ffd5b61148184611380565b925061148f60208501611380565b929592945050506040919091013590565b80151581146113c9575f5ffd5b5f5f604083850312156114be575f5ffd5b6114c783611380565b915060208301356114d7816114a0565b809150509250929050565b634e487b7160e01b5f52604160045260245ffd5b5f5f5f5f60808587031215611509575f5ffd5b61151285611380565b935061152060208601611380565b925060408501359150606085013567ffffffffffffffff811115611542575f5ffd5b8501601f81018713611552575f5ffd5b803567ffffffffffffffff81111561156c5761156c6114e2565b604051601f8201601f19908116603f0116810167ffffffffffffffff8111828210171561159b5761159b6114e2565b6040528181528282016020018910156115b2575f5ffd5b816020840160208301375f6020838301015280935050505092959194509250565b5f5f604083850312156115e4575f5ffd5b6115ed83611380565b91506115fb60208401611380565b90509250929050565b5f60208284031215611614575f5ffd5b815161092b816114a0565b634e487b7160e01b5f52601160045260245ffd5b808201808211156105215761052161161f565b600181811c9082168061165a57607f821691505b60208210810361167857634e487b7160e01b5f52602260045260245ffd5b50919050565b5f81518060208401855e5f93019283525090919050565b5f6108186116a3838661167e565b8461167e565b693d913237b737b9111d1160b11b81525f6116c7600a83018661167e565b691116113230ba32911d1160b11b81526116e4600a82018661167e565b6b11161130b6b7bab73a111d1160a11b81529050611705600c82018561167e565b61227d60f01b81526002019695505050505050565b7f646174613a6170706c69636174696f6e2f6a736f6e3b6261736536342c00000081525f61092b601d83018461167e565b601f82111561068f57805f5260205f20601f840160051c810160208510156117705750805b601f840160051c820191505b81811015610cc6575f815560010161177c565b815167ffffffffffffffff8111156117a9576117a96114e2565b6117bd816117b78454611646565b8461174b565b6020601f8211600181146117ef575f83156117d85750848201515b5f19600385901b1c1916600184901b178455610cc6565b5f84815260208120601f198516915b8281101561181e57878501518255602094850194600190920191016117fe565b508482101561183b57868401515f19600387901b60f8161c191681555b50505050600190811b01905550565b6001600160a01b03858116825284166020820152604081018390526080606082018190525f9061187c908301846113e7565b9695505050505050565b5f60208284031215611896575f5ffd5b815161092b816113b4565b80820281158282048414176105215761052161161f565b634e487b7160e01b5f52603260045260245ffd5b5f816118da576118da61161f565b505f190190565b5f826118fb57634e487b7160e01b5f52601260045260245ffd5b50049056fe4142434445464748494a4b4c4d4e4f505152535455565758595a6162636465666768696a6b6c6d6e6f707172737475767778797a303132333435363738392b2fa2646970667358221220b3235b1f29ed6accb632380c5ba8b3770eb2d8ceb2f1506778a48b6642c9a89c64736f6c634300081c0033","linkReferences":{}},"methodIdentifiers":{"approve(address,uint256)":"095ea7b3","balanceOf(address)":"70a08231","donate(address)":"00362a95","getApproved(uint256)":"081812fc","isApprovedForAll(address,address)":"e985e9c5","name()":"06fdde03","owner()":"8da5cb5b","ownerOf(uint256)":"6352211e","registry()":"7b103999","safeTransferFrom(address,address,uint256)":"42842e0e","safeTransferFrom(address,address,uint256,bytes)":"b88d4fde","setApprovalForAll(address,bool)":"a22cb465","supportsInterface(bytes4)":"01ffc9a7","symbol()":"95d89b41","tokenCounter()":"d082e381","tokenURI(uint256)":"c87b56dd","transferFrom(address,address,uint256)":"23b872dd","updateRegistry(address)":"1a5da6c8"},"id":39}