{"abi":[{"type":"constructor","inputs":[],"stateMutability":"nonpayable"},{"type":"function","name":"admin","inputs":[],"outputs":[{"name":"","type":"address","internalType":"address"}],"stateMutability":"view"},{"type":"function","name":"changeAdmin","inputs":[{"name":"newAdmin","type":"address","internalType":"address"}],"outputs":[],"stateMutability":"nonpayable"},{"type":"function","name":"isVerified","inputs":[{"name":"charity","type":"address","internalType":"address"}],"outputs":[{"name":"","type":"bool","internalType":"bool"}],"stateMutability":"view"},{"type":"function","name":"registerCharity","inputs":[{"name":"charity","type":"address","internalType":"address"}],"outputs":[],"stateMutability":"nonpayable"},{"type":"function","name":"registeredCharities","inputs":[{"name":"","type":"address","internalType":"address"}],"outputs":[{"name":"","type":"bool","internalType":"bool"}],"stateMutability":"view"},{"type":"function","name":"verifiedCharities","inputs":[{"name":"","type":"address","internalType":"address"}],"outputs":[{"name":"","type":"bool","internalType":"bool"}],"stateMutability":"view"},{"type":"function","name":"verifyCharity","inputs":[{"name":"charity","type":"address","internalType":"address"}],"outputs":[],"stateMutability":"nonpayable"}],"bytecode":{"object":"0x6080604052348015600e575f5ffd5b505f80546001600160a01b0319163317905561033e8061002d5f395ff3fe608060405234801561000f575f5ffd5b506004361061007a575f3560e01c80638f283970116100585780638f283970146100fb578063a3c821a71461010e578063b9209e3314610130578063f851a4401461015b575f5ffd5b80630dbf8da11461007e57806372097548146100b1578063726e7b6e146100c4575b5f5ffd5b6100af61008c3660046102db565b6001600160a01b03165f908152600260205260409020805460ff19166001179055565b005b6100af6100bf3660046102db565b610185565b6100e66100d23660046102db565b60026020525f908152604090205460ff1681565b60405190151581526020015b60405180910390f35b6100af6101093660046102db565b610261565b6100e661011c3660046102db565b60016020525f908152604090205460ff1681565b6100e661013e3660046102db565b6001600160a01b03165f9081526002602052604090205460ff1690565b5f5461016d906001600160a01b031681565b6040516001600160a01b0390911681526020016100f2565b5f546001600160a01b031633146101db5760405162461bcd60e51b81526020600482015260156024820152744f6e6c792061646d696e2063616e2076657269667960581b60448201526064015b60405180910390fd5b6001600160a01b0381165f9081526002602052604090205460ff1661023b5760405162461bcd60e51b815260206004820152601660248201527510da185c9a5d1e481b9bdd081c9959da5cdd195c995960521b60448201526064016101d2565b6001600160a01b03165f908152600160208190526040909120805460ff19169091179055565b5f546001600160a01b031633146102ba5760405162461bcd60e51b815260206004820152601b60248201527f4f6e6c792061646d696e2063616e206368616e67652061646d696e000000000060448201526064016101d2565b5f80546001600160a01b0319166001600160a01b0392909216919091179055565b5f602082840312156102eb575f5ffd5b81356001600160a01b0381168114610301575f5ffd5b939250505056fea264697066735822122069d46b067cdd69925636f77cbc721d94345490bbc8d293590f390178d82ede0464736f6c634300081c0033","linkReferences":{}},"methodIdentifiers":{"admin()":"f851a440","changeAdmin(address)":"8f283970","isVerified(address)":"b9209e33","registerCharity(address)":"0dbf8da1","registeredCharities(address)":"726e7b6e","verifiedCharities(address)":"a3c821a7","verifyCharity(address)":"72097548"},"id":38}